:020000040800F2
:10000000E019002089010008F16F00081D4E00086A
:10001000ED6F000851060008FD7C0008000000009C
:10002000000000000000000000000000D571000882
:100030006D0900080000000095710008F9750008BE
:10004000A3010008A3010008A3010008A301000800
:10005000A3010008A3010008A3010008A3010008F0
:10006000A3010008A3010008A30100086507000818
:10007000A3010008A3010008A3010008A3010008D0
:10008000A301000815080008A3010008A301000847
:10009000A301000855060008A3010008A3010008F9
:1000A000A3010008A1760008A3010008A30100082D
:1000B000A301000815770008A3010008214E0008DD
:1000C000A3010008A3010008A3010008A301000880
:1000D000A3010008A3010008A3010008A301000870
:1000E000A3010008A3010008A301000800F002F822
:1000F00000F03AF80AA090E8000C82448344AAF188
:100100000107DA4501D100F02FF8AFF2090EBAE885
:100110000F0013F0010F18BFFB1A43F0010318473B
:10012000C8AA0000E8AA0000103A24BF78C878C125
:10013000FAD8520724BF30C830C144BF04680C60ED
:10014000704700000023002400250026103A28BF35
:1001500078C1FBD8520728BF30C148BF0B60704739
:100160001FB51FBD10B510BD00F07AF81146FFF79E
:10017000F7FF07F027FE00F098F803B4FFF7F2FF4F
:1001800003BC00F09FF80000094880470948004779
:10019000FEE7FEE7FEE7FEE7FEE7FEE7FEE7FEE737
:1001A000FEE7FEE704480549054A064B7047000094
:1001B0009D760008ED000008E0130020E019002003
:1001C000E0150020E01500204FF000020429C0F0E7
:1001D000128010F0030C00F01B80CCF1040CBCF179
:1001E000020F18BF00F8012BA8BF20F8022BA1EBCB
:1001F0000C0100F00DB85FEAC17C24BF00F8012BB0
:1002000000F8012B48BF00F8012B70474FF00002A7
:1002100000B5134694469646203922BFA0E80C50FC
:10022000A0E80C50B1F12001BFF4F7AF090728BFD7
:10023000A0E80C5048BF0CC05DF804EB890028BF53
:1002400040F8042B08BF704748BF20F8022B11F07C
:10025000804F18BF00F8012B7047704770477047F8
:10026000754600F02BF8AE4605006946534620F06F
:100270000700854618B020B5FFF794FFBDE8204081
:100280004FF000064FF000074FF000084FF0000B52
:10029000AC46ACE8C009ACE8C009ACE8C009ACE8C1
:1002A000C00921F007018D46704710B50446AFF331
:1002B00000802046BDE81040FFF75FBF0048704750
:1002C0003000002001491820ABBEFEE726000200E6
:1002D0007047000080B584B0029000200190029821
:1002E00000688068C007002830D0FFE702980068E7
:1002F000816821F00101816002F096FA0190FFE728
:10030000029800688068C00700281ED0FFE702F04E
:100310008BFA0199401A032816D3FFE70298006868
:100320008068C00700280ED0FFE70298816A41F07C
:10033000100181620298C16A41F00101C16201208D
:100340008DF80F0006E0FFE7DAE7FFE700208DF801
:100350000F00FFE79DF80F0004B080BD80B584B0AA
:1003600003900398406A02900298806A10F0500F40
:1003700029D1FFE70298816A41F4007181620298F5
:100380000068806800F46020B0F5602F17D1FFE7A7
:100390000298007B002812D1FFE70298816A21F4BD
:1003A000807181620298806AC004002806D4FFE749
:1003B0000298816A41F001018162FFE7FFE702983C
:1003C00001F0C8F808E00298006A006B03990190F8
:1003D000084601998847FFE704B080BD80B582B028
:1003E00001900198406A00900098816A41F04001B4
:1003F00081620098C16A41F00401C162009801F075
:10040000B1F802B080BD000080B582B001900198C3
:10041000406A0090009801F0A1F802B080BD000091
:1004200080B584B00290002001900090029800688E
:100430008068C00700284CD1FFE7029800688168F7
:1004400041F00101816040F20C00C2F2000000683E
:100450004DF68361C4F21B31A0FB0101890C0091B0
:10046000FFE70098002804D0FFE7009801380090CB
:10047000F7E702F0D9F90190FFE702980068806879
:10048000C007002824D1FFE702F0CEF90199401AF5
:1004900003281CD3FFE7029800688068C007002883
:1004A00014D1FFE70298816A41F01001816202983D
:1004B000C16A41F00101C162FFE70298002180F8A2
:1004C0002410FFE701208DF80F0006E0FFE7D4E7D6
:1004D000FFE700208DF80F00FFE79DF80F0004B044
:1004E00080BD000080B586B041F2E410C2F2000089
:1004F000059001F03BF841F21421C2F20001049092
:100500000846039101F032F805990290084600F080
:100510005FFD03990190084600F05AFD40F29001FA
:10052000C2F200010F22059B0090184600F072FEF7
:1005300006B080BD80B584B00020039002F074F94D
:10054000029041F2C910C2F200000178407809051A
:1005500041EA003040F2D001C2F20001C1F8DC00F3
:10056000D1F8DC0007F012FE41F2E011C2F2000106
:100570000860029841F2C411C2F200010968401AF1
:1005800000281DD1FFE741F2C010C2F20000006850
:1005900040F2D001C2F20001D1F8DC20801A00063E
:1005A000029A41F2C413C2F200031B68D21A120667
:1005B0000191114607F0D4FC0199C1F8E000FFE772
:1005C00040F2D000C2F20000D0F8DC0041F2C011CD
:1005D000C2F200010860029841F2C411C2F20001A7
:1005E000086004B080BD000080B582B0684602217A
:1005F000416041F2C911C2F20001016041F2F420F0
:10060000C2F200006C210C22012302F081FC02B036
:1006100080BD000081B00090FFE70098B0F1807FBE
:1006200005DDFFE7009800F17F4000900BE00098A7
:10063000B0F1FF3F05DCFFE7009800F1807000900B
:1006400000E001E0FFE7E8E7009801B07047000034
:10065000FFE7FEE780B541F24420C2F2000001F05E
:1006600031FA80BD80B584B0039002910192039865
:100670000299084440420199086040F21800C2F211
:10068000000000680299039A891A07F0F5FC0199A5
:10069000486004B080BD000080B586B04FF47A7029
:1006A00001F0EEFE00200590FFE7059880087C2809
:1006B0001CD8FFE741F2D010C2F200000168059A91
:1006C00040F2D413C2F2000343F8221040680599A7
:1006D00040F6A412C2F2000242F82100012001F00B
:1006E000CFFEFFE7059801300590DEE7002004907B
:1006F00003900290FFE7029880087C2826D8FFE745
:10070000029840F2D411C2F2000151F8200040F2E8
:100710001001C2F200010A680191114607F0ACFC19
:10072000049908440490029840F6A411C2F2000112
:1007300051F820000199096807F09EFC03990844CC
:100740000390FFE7029801300290D4E7049840F24A
:10075000D001C2F20001C1F8FC000398C1F8000109
:1007600006B080BD80B541F26C20C2F20000C16BC2
:100770000968006C21FA00F04007002810D5FFE757
:1007800041F26C20C2F200000068006840070028B7
:1007900006D5FFE70420C4F20200042101601FE037
:1007A00041F26C20C2F20000C16B0968006C21FAB2
:1007B00000F08007002812D5FFE741F26C20C2F25A
:1007C0000000006800688007002808D5FFE700F0F7
:1007D0002FFB0420C4F2020002210160FFE7FFE7C3
:1007E000FFE741F26C20C2F20000002180F82010E7
:1007F000FFE741F26C20C2F20000806A002807D0B7
:10080000FFE741F26C20C2F20000816A8847FFE7EF
:1008100080BD000080B541F2B020C2F20000C16B83
:100820000968006C21FA00F04007002824D5FFE792
:1008300041F2B020C2F200000068006840070028C2
:100840001AD5FFE741F2B020C2F20000006800684C
:10085000800600280AD4FFE741F2B020C2F200006F
:100860000068016821F004010160FFE70420C4F280
:1008700002000421016036E041F2B020C2F2000023
:10088000C16B0968006C21FA00F08007002829D5A7
:10089000FFE741F2B020C2F2000000680068800764
:1008A00000281FD5FFE741F2B020C2F20000006827
:1008B0000068800600280FD4FFE741F2B020C2F2A2
:1008C000000001680A6822F00A020A60012180F82B
:1008D0002110FFF72FFEFFE70420C4F202000221DF
:1008E0000160FFE7FFE7FFE741F2B020C2F200003E
:1008F000002180F82010FFE741F2B020C2F2000092
:10090000806A002807D0FFE741F2B020C2F2000061
:10091000816A8847FFE780BD84B00390029101920D
:1009200000930398C16B006C012202FA00F048604A
:10093000009803990968486003984068102809D115
:10094000FFE701980399096888600298039909688C
:10095000C86008E0029803990968886001980399C3
:100960000968C860FFE704B07047000070470000E6
:1009700040F61040C4F201004FF48051016070470E
:1009800081B0EFF3108072B60090FFE7FEE7000041
:1009900080B582B0FFF7CEFD41F2D010C2F2000068
:1009A00000F0BAFA40F2D000C2F20000D0F8F41021
:1009B000D0F8F820019008461146019AFFF752FE40
:1009C0000198D0F8DC00019991F8EC1000F0E0FA01
:1009D0000198006801994968019A083206F0A0FB65
:1009E000019880680199C968019A1269019B5B6945
:1009F00000F05AF8019880690199D1F8D0200021BF
:100A000006F0EAFB02B080BD80B588B040F2D000AD
:100A1000C2F2000041F24831C2F20001C162C16A73
:100A20000790084603F0ACFD0799CA6A0690104685
:100A300004F0DEF80799CA6A0023059010461946AB
:100A4000049304F031F90799CA6A0421039010460F
:100A500004F02AF90799CA6A08210290104604F0A6
:100A600023F90190FFF784FF06F018FB43F23330BF
:100A7000C0F2B30007990861049848614FF04062E2
:100A8000C1F8E820C1F8E4200B2281F8EC20FF2215
:100A900081F8D42048F67E42C0F26902C1F8D8201D
:100AA000FFF7FAFD08B080BD80B59AB01990189193
:100AB00017921693179840F2D001C2F20001C1F8C4
:100AC0008000169808631998C1F884001898486344
:100AD000D1F88400159107F059FB41F27C11C2F264
:100AE00000010860189807F051FB41F27411C2F23E
:100AF000000108601598D0F88010D0F88420891A79
:100B0000C0F8B010D0F88010D0F88420D0F8980049
:100B1000159BD3F8CCC0891A1490604607F0ACFA44
:100B2000149913900846139907F0A6FA1599D1F86D
:100B3000C0201044C1F8B400D1F8A400D1F8B4200A
:100B4000824208DDFFE740F2D000C2F20000D0F898
:100B5000A40012901DE040F2D000C2F20000D0F8D4
:100B6000A010D0F8B400884208DAFFE740F2D000C5
:100B7000C2F20000D0F8A000119007E040F2D000CF
:100B8000C2F20000D0F8B4001190FFE71198129063
:100B9000FFE7129840F2D001C2F20001C1F8B400A0
:100BA000D1F8B400C1F8C000D1F88000D1F8842099
:100BB000D1F89C30801A10901846109A0F91114667
:100BC00007F05AFA0F99D1F8C820801AC1F8C80066
:100BD000D1F8C400D1F8C8201044C1F8B800D1F849
:100BE00090100F98D0F8B80007F046FA0F99C1F8A6
:100BF000C400D1F89400D1F8B020D1F8B430D1F8C5
:100C0000B8C01A4402EB0C0107F036FA0F99C1F88C
:100C1000BC00D1F8A800D1F8BC20824208DDFFE773
:100C200040F2D000C2F20000D0F8A8000E901DE003
:100C300040F2D000C2F20000D0F8AC10D0F8BC00F6
:100C4000884208DAFFE740F2D000C2F20000D0F894
:100C5000AC000D9007E040F2D000C2F20000D0F8E6
:100C6000BC000D90FFE70D980E90FFE70E9840F244
:100C7000D001C2F20001C1F88800D1F88800D1F893
:100C8000BC20801AB0FA80F040090006C1F8CC0000
:100C9000086B4A6B801A0866086B4A6B8B6CD1F83C
:100CA0007CC0801A0C9060460C9A0B9111460A93F6
:100CB00007F0E2F90A9909900846099907F0DCF96A
:100CC0000B990A6F10444866486D4A6E824207DDF0
:100CD000FFE740F2D000C2F20000406D089019E03A
:100CE00040F2D000C2F20000016D406E884207DA87
:100CF000FFE740F2D000C2F20000006D079006E06E
:100D000040F2D000C2F20000406E0790FFE7079863
:100D10000890FFE7089840F2D001C2F2000148664F
:100D2000486E0867086B4A6BCB6C801A06901846B1
:100D3000069A0591114607F09FF905998A6F801A66
:100D40008867486F8A6F10448866096C0598806EC2
:100D500007F092F905994867486C0A6E4B6ED1F816
:100D600068C01A4402EB0C0107F086F90599C866C1
:100D7000886DCA6E824207DDFFE740F2D000C2F202
:100D80000000806D049019E040F2D000C2F2000033
:100D9000C16DC06E884207DAFFE740F2D000C2F2B0
:100DA0000000C06D039006E040F2D000C2F20000E7
:100DB000C06E0390FFE703980490FFE7049840F2A9
:100DC000D001C2F200018863886BCA6E801AB0FA43
:100DD00080F040090006C867D1F8880041F29012FF
:100DE000C2F2000202901046029A0191114605F0EB
:100DF00021FE01998861896B41F28410C2F20000E2
:100E000005F018FE0199C86141F28010C2F200009D
:100E100043F23332C3F633720260C86907F0B6F9A1
:100E200041F27811C2F2000108601AB080BD0000E2
:100E300080B58CB000200B900A90ADF82600FFE73B
:100E4000BDF826000E281ADCFFE7BDF8260040F2A8
:100E50009001C2F2000131F820000A9A10440A9071
:100E6000BDF8260001EB800040880B9908440B90E8
:100E7000FFE7BDF826000130ADF82600E0E740F2BC
:100E80009000C2F200003C21FFF79EF940F21C00E6
:100E9000C2F2000001680A9A08901046079109F012
:100EA000B7FD4FF08B41069109F0D4FC0021C4F24C
:100EB0007011059109F0CEFC4FF09741049109F0B3
:100EC000BBFD09F089FD079903900846039907F0D7
:100ED000D3F841F2D011C2F200010860089800680E
:100EE0000B9A02901046019109F092FD069909F0C3
:100EF000B1FC059909F0AEFC049909F09DFD09F0DB
:100F00006BFD029900900846009907F0B5F8019929
:100F100048600CB080BD000080B584B0039040F202
:100F2000D000C2F20000D0F8FC10039A1268891AAF
:100F300040F20002C2F20002126802900846114616
:100F400007F09AF841F29C11C2F2000101900846A4
:100F5000019905F06FFD0299C1F8F400039840680B
:100F6000D1F80021801A40F20402C2F20002116896
:100F700007F082F841F2A811C2F200010090084681
:100F8000009905F057FD0299C1F8F80004B080BD42
:100F900080B584B00A4603908DF80B1003989DF835
:100FA0000B104942484340F2D001C2F20001D1F88F
:100FB000D830C01AC1F8D000D1F8D0000192009109
:100FC000FFF728FB0099C1F8D00004B080BD0000F5
:100FD00080B588B0069000208DF817000390FFE7D9
:100FE000069890F82400012804D1FFE702208DF82C
:100FF0001F00AEE00698012180F82410FFE7FFE70C
:101000000698FFF767F98DF817009DF8170000287C
:1010100040F09480FFE70698806A40F0020020F4D8
:1010200088500699886240F20C00C2F20000006805
:1010300002210290084602F053FA0299B1FBF0F047
:1010400040000390FFE70398002804D0FFE70398CF
:1010500001380390F7E70698FFF7E2F90699096867
:101060008A6842F008028A60019001F0DDFB04907A
:10107000FFE70698006880680007002822D5FFE790
:1010800001F0D2FB0499401A0B281AD3FFE7069807
:10109000006880680007002812D5FFE70698806A7C
:1010A00040F0100020F0020006998862FFE70698E1
:1010B000002180F82410FFE701208DF81F0048E090
:1010C000FFE7D6E706980068816841F00401816077
:1010D00001F0AAFB0490FFE70698006880684007CB
:1010E000002822D5FFE701F09FFB0499401A0B2846
:1010F0001AD3FFE70698006880684007002812D5D9
:10110000FFE70698806A40F0100020F00200069980
:101110008862FFE70698002180F82410FFE701208D
:101120008DF81F0015E0FFE7D6E70698806A40F0CB
:10113000010020F0020006998862FFE7FFE70698A9
:10114000002180F82410FFE79DF817008DF81F009C
:10115000FFE79DF81F0008B080BD000080B590B08B
:101160000E900D9100208DF8330068463021FFF776
:101170004DF8FFE70E9890F82400012804D1FFE70E
:1011800002208DF83F0040E00E98012180F82410E5
:10119000FFE7FFE742F60000C4F2010000900E985E
:1011A00000688068C00700281BD1FFE700988068AE
:1011B000C007002815D1FFE70E98006842F20041F1
:1011C000C4F2010188420CD1FFE70E980068406824
:1011D00020F470200D99096808430E990968486049
:1011E00008E00E98816A41F02001816201208DF8AB
:1011F0003300FFE7FFE70E98002180F82410FFE797
:101200009DF833008DF83F00FFE79DF83F0010B0D8
:1012100080BD000080B592B010900F910E9200201A
:101220008DF8370001A83021FEF7F0FFFFE7109896
:1012300090F82400012804D1FFE702208DF8470030
:10124000A6E01098012180F82410FFE7FFE742F69E
:101250000000C4F2010001900198806800F4602051
:10126000B0F5602F0FD0FFE71098816A41F02001A0
:101270008162FFE71098002180F82410FFE7012029
:101280008DF8470084E01098FFF7CAF88DF8370012
:101290009DF83700002806D1FFE701A8FFF7C0F846
:1012A0008DF83700FFE79DF83700002864D1FFE78D
:1012B0001098806A40F480704FF6FE51CFF6EF71BF
:1012C000084010998862109800684068400500281E
:1012D00009D5FFE71098806A40F4805020F4005050
:1012E00010998862FFE7FFE71098002180F824102A
:1012F000FFE710980021C1621098006A40F25D314A
:10130000C0F6000181621098006A40F20941C0F6FF
:101310000001C1621098006A40F2DD31C0F60001A0
:101320000163109800686FF0020101601098006876
:10133000816841F48071816010980168006A4C31C5
:101340000F9A0E9B01F036F810990968896801F42C
:101350006021B1F5602F07D1FFE710980068816820
:1013600041F4A001816006E010980068816841F4B2
:1013700080118160FFE706E0FFE71098002180F808
:101380002410FFE7FFE79DF837008DF84700FFE7DF
:101390009DF8470012B080BD85B0039002910020F7
:1013A0008DF807000090FFE7039890F824000128CB
:1013B00004D1FFE702208DF81300C7E00398012154
:1013C00080F82410FFE7FFE702984068062813D84A
:1013D000FFE703980068406B02990A68496801EBCF
:1013E000810105391F238B40984302FA01F108431C
:1013F0000399096848632BE0029840680C2813D8C9
:10140000FFE703980068006B02990A68496801EBDE
:10141000810123391F238B40984302FA01F10843CD
:1014200003990968086312E003980068C06A02998A
:101430000A68496801EB810141391F238B409843B9
:1014400002FA01F1084303990968C862FFE7FFE760
:10145000029800680A2812D3FFE703980068C06862
:1014600002990A68896802EB42021E3A07239340F8
:1014700098439140084303990968C86010E00398B5
:101480000068006902990A68896802EB4202072332
:101490009340984391400843039909680861FFE726
:1014A00002980068102805D0FFE70298006811280C
:1014B00041D1FFE70398006842F20041C4F2010104
:1014C00088422ED1FFE70398006880680002002858
:1014D00026D4FFE703980068816841F40001816029
:1014E0000298006810281AD1FFE740F20C00C2F2FF
:1014F000000000684DF68361C4F21B31A0FB0101BE
:10150000890C01EB810149000091FFE70098002858
:1015100004D0FFE7009801380090F7E7FFE7FFE706
:1015200008E00398816A41F02001816201208DF872
:101530000700FFE7FFE7FFE70398002180F824108A
:10154000FFE79DF807008DF81300FFE79DF81300F3
:1015500005B0704781B0009001B0704781B0009035
:1015600001B0704781B0009001B0704780B588B07D
:10157000069000208DF817000490039002900698C2
:10158000002804D1FFE701208DF81F00F8E006983D
:101590008068002807D0FFE70698007D002801D06A
:1015A000FFE7FFE7FFE70698806A00280AD1FFE718
:1015B00006980021C162069880F82410069800F071
:1015C000E3F8FFE70698FEF785FE8DF8170006980A
:1015D000806AC006002800F1C580FFE79DF817006B
:1015E000002840F0BF80FFE70698806A40F00200C4
:1015F00020F488500699886206984168C2691143B0
:10160000007B41EA400003990843039006988068F4
:101610000121B0F5807F019108D0FFE7069880682E
:101620000138B0FA80F040090190FFE70198049971
:10163000C00741F48072002818BF11460491069833
:10164000007D01281FD1FFE70698007B00280ED1FE
:10165000FFE7069880694EF20001CFF6FF7101EBBB
:1016600040300499084340F4006004900AE0069872
:10167000816A41F0200181620698C16A41F001014E
:10168000C162FFE7FFE706980068406820F4694000
:1016900004990843069909684860069800688068BC
:1016A0004FF2FD71CFF6E1710840039908430699A6
:1016B00009688860069880680121B0F5807F0091F4
:1016C00008D0FFE7069880680138B0FA80F040093A
:1016D0000090FFE7009800F00100002818BF4FF4C9
:1016E0008070B0F5807F09D1FFE70698006900217E
:1016F000CFF6F07101EB00500290FFE7069800680A
:10170000C06A20F470000299084306990968C8620B
:1017100006980068806840F6FE61CFF61F710840A9
:10172000039988420CD1FFE706980021C162069810
:10173000806A40F0010020F002000699886210E003
:101740000698806A40F0100020F002000699886236
:101750000698C16A41F00101C16201208DF81700AD
:10176000FFE708E00698816A41F0100181620120DC
:101770008DF81700FFE79DF817008DF81F00FFE7B1
:101780009DF81F0008B080BD80B58AB00990002088
:1017900008900790069005900998006842F2004171
:1017A000C4F20101884254D1FFE7FFE741F218007B
:1017B000C4F20200016841F400710160006800F4A5
:1017C000007004900498FFE7FFE741F21800C4F2AC
:1017D0000200016841F008010160006800F00800A3
:1017E00003900398FFE7012005900320069040F640
:1017F0000040C4F2010005A900F064FE41F26C2033
:10180000C2F200000821C4F202010160002141601F
:1018100081608021C1604FF4007101614FF400616B
:101820004161202181614FF40051C16100F066FDEA
:10183000002803D0FFE7FFF7A3F8FFE7FFE70998C9
:1018400041F26C21C2F20001016209984862FFE78F
:1018500033E00998006842F60001C4F201018842B1
:101860002AD1FFE7FFE741F21800C4F20200016845
:1018700041F480610160006800F480600290029889
:10188000FFE7FFE741F21800C4F20200016841F0EF
:1018900008010160006800F0080001900198FFE76E
:1018A000022005900320069040F60040C4F201009B
:1018B00005A900F007FEFFE7FFE70AB080BD0000C2
:1018C00081B0009001B0704786B0049003910292FD
:1018D0000193049890F820008DF803009DF8030010
:1018E000012806D0FFE79DF80300022840F0DC80C5
:1018F000FFE70398002811D1FFE704980068C0684B
:101900008007002809D1FFE70498416A41F40011DB
:10191000416201208DF81700CFE010E004980068C4
:1019200000698007002809D1FFE70498416A41F463
:101930000011416201208DF81700BEE0FFE7049816
:101940000068039900EB0110D0F8B00100F004002A
:10195000029988600298806800280BD1FFE70498FC
:101960000068039900EB0110D0F8B001400D029916
:1019700008600AE004980068039900EB0110D0F8B1
:10198000B001C00802994860FFE704980068039915
:1019900000EB0110D0F8B00100F002000299C8601D
:1019A00004980068039900EB0110D0F8B40100F02E
:1019B0000F000299086104980068039900EB011078
:1019C000D0F8B40180B2000A0299886104980068D6
:1019D000039900EB0110D0F8B401000C02994861A2
:1019E00004980068039900EB0110D0F8B801019940
:1019F000087004980068039900EB0110D0F8B80152
:101A0000000A0199487004980068039900EB0110DE
:101A1000D0F8B801000C0199887004980068039907
:101A200000EB0110D0F8B801000E0199C8700498BD
:101A30000068039900EB0110D0F8BC01019908710E
:101A400004980068039900EB0110D0F8BC01000A6B
:101A50000199487104980068039900EB0110D0F8CF
:101A6000BC01000C0199887104980068039900EB8F
:101A70000110D0F8BC01000E0199C871039800282C
:101A800007D1FFE704980068C16841F02001C160F8
:101A900006E004980068016941F020010161FFE758
:101AA00000208DF8170008E00498416A41F4802175
:101AB000416201208DF81700FFE79DF8170006B07E
:101AC0007047000080B58AB00990002008900998FE
:101AD0000068406907900998006840680690099876
:101AE00000688068059009980068C06804900998AB
:101AF00000680069039009980068806902909DF869
:101B00001C00C007002800F09780FFE79DF8140034
:101B1000C00700282BD0FFE70998006801218160E9
:101B20009DF814008007002804D5FFE7099800F00D
:101B300035FB1BE09DF814004007002805D5FFE7A2
:101B4000089840F4006008900FE09DF8140000072A
:101B5000002805D5FFE7089840F48050089003E07E
:101B6000099800F017FBFFE7FFE7FFE7FFE79DF8A5
:101B70001500C00700282CD0FFE7099800684FF433
:101B8000807181609DF815008007002804D5FFE76B
:101B9000099800F00BFB1BE09DF81500400700289A
:101BA00005D5FFE7089840F4005008900FE09DF835
:101BB00015000007002805D5FFE7089840F480408D
:101BC000089003E0099800F0EDFAFFE7FFE7FFE770
:101BD000FFE79DF81600C00700282CD0FFE7099802
:101BE00000684FF4803181609DF81600800700285E
:101BF00004D5FFE7099800F0E1FA1BE09DF8160014
:101C00004007002805D5FFE7089840F400400890F9
:101C10000FE09DF816000007002805D5FFE708989B
:101C200040F48030089003E0099800F0C3FAFFE721
:101C3000FFE7FFE7FFE7FFE79DF81C00000700282C
:101C400010D5FFE79DF81000C006002809D5FFE772
:101C5000089840F400700890099800681021C1604D
:101C6000FFE7FFE79DF81C00400700280FD5FFE7BE
:101C70009DF810000007002808D5FFE709980068C4
:101C80000821C160099800F069FAFFE7FFE79DF8B5
:101C90001C00800700280CD5FFE709980068C06881
:101CA0008007002804D0FFE7099800F05BFAFFE7FF
:101CB000FFE79DF81C004006002810D5FFE79DF8BF
:101CC0000C00C006002809D5FFE7089840F48060A2
:101CD00008900998006810210161FFE7FFE79DF86F
:101CE0001C00800600280FD5FFE79DF80C000007B8
:101CF000002808D5FFE709980068082101610998C4
:101D000000F034FAFFE7FFE79DF81C00C00600284A
:101D10000CD5FFE70998006800698007002804D007
:101D2000FFE7099800F026FAFFE7FFE79DF81E009D
:101D3000800700280FD5FFE79DF81800C00600288F
:101D400008D5FFE70998006810214160099800F064
:101D50001DFAFFE7FFE79DF81E00C00700280FD01F
:101D6000FFE79DF818000007002808D5FFE709984D
:101D7000006808214160099800F024FAFFE7FFE7B6
:101D80009DF81D000006002840F18F80FFE79DF8B8
:101D900018004007002840F18380FFE79DF81D00F0
:101DA000C00700280BD0FFE79DF80800C0070028F7
:101DB00005D0FFE7089840F001000890FFE79DF884
:101DC0001D00800700280BD5FFE79DF8080080075D
:101DD000002805D5FFE7089840F002000890FFE7CB
:101DE0009DF81D00400700280BD5FFE79DF808006F
:101DF0004007002805D5FFE7089840F00400089048
:101E0000FFE79DF81D000007002848D5FFE79DF873
:101E1000080010F0700F42D0FFE7029800F0700049
:101E200001461028019114D0FFE70198202815D011
:101E3000FFE70198302816D0FFE70198402817D017
:101E4000FFE70198502818D0FFE70198602819D0C3
:101E50001DE0089840F00800089019E0089840F04C
:101E60001000089014E0089840F0200008900FE05F
:101E7000089840F0400008900AE0089840F0800080
:101E8000089005E0089840F48070089000E0FFE7B3
:101E900009980068816921F070018161FFE7FFE71F
:101EA0000998006804214160FFE70898002809D0DC
:101EB000FFE7089809994A6A104348620998FFF7B2
:101EC000FFFCFFE70AB080BD80B584B002900298A5
:101ED000002804D1FFE701208DF80F00E2E002980E
:101EE00090F82000002804D1FFE7029800F0DEF807
:101EF000FFE702980068016841F00101016000F00D
:101F000093FC0190FFE7029800684068C007002832
:101F100015D1FFE700F088FC0199401A0B280DD37A
:101F2000FFE70298416A41F40031416202980521BD
:101F300080F8201001208DF80F00B3E0E3E702984D
:101F40000068016821F00201016000F06DFC019061
:101F5000FFE70298006840688007002815D5FFE772
:101F600000F062FC0199401A0B280DD3FFE702989C
:101F7000416A41F4003141620298052180F8201045
:101F800001208DF80F008DE0E3E70298007E012824
:101F900007D1FFE702980068016841F08001016005
:101FA00006E002980068016821F080010160FFE707
:101FB0000298407E012807D1FFE702980068016877
:101FC00041F04001016006E002980068016821F0DC
:101FD00040010160FFE70298807E012807D1FFE7FA
:101FE00002980068016841F02001016006E0029853
:101FF0000068016821F020010160FFE70298C07EBF
:10200000012807D1FFE702980068016821F010015C
:10201000016006E002980068016841F0100101606B
:10202000FFE70298007F012807D1FFE702980068C8
:10203000016841F00801016006E00298006801684B
:1020400021F008010160FFE70298407F012807D1D5
:10205000FFE702980068016841F00401016006E0B2
:1020600002980068016821F004010160FFE702980E
:10207000016842688368D0F80CC043EA0C03D0F8CA
:1020800010C043EA0C0340691843013A1043C86189
:102090000298002141620298012280F820208DF8E8
:1020A0000F10FFE79DF80F0004B080BD80B58CB025
:1020B0000B9000200A900990089007900B980068F8
:1020C00046F20041C4F20001884245D1FFE7FFE734
:1020D00041F21C00C4F20200016841F0007101608D
:1020E000006800F0007006900698FFE7FFE741F2F5
:1020F0001800C4F20200016841F0040101600068A8
:1021000000F0040005900598FFE74FF40060079089
:1021100000200890099040F60001C4F2010107AACE
:102120000490084603911146029200F0CBF94FF457
:10213000805007900220089003200A90039802998B
:1021400000F0C0F9152001900499049A01F0A0F95B
:10215000019801F091F9FFE70CB080BD81B00090CB
:1021600001B0704781B0009001B0704781B000901D
:1021700001B0704780B58AB009900998012102AA80
:102180006B46FFF7A1FBFFE70AB080BD81B000906E
:1021900001B0704781B0009001B0704781B00090ED
:1021A00001B0704781B0009001B0704781B00090DD
:1021B00001B0704781B0009001B0704781B00090CD
:1021C00001B0704781B0009001B0704780B588B011
:1021D000079000208DF81B00079890F82100022836
:1021E00007D0FFE707980421816301208DF81B00C9
:1021F00077E007980068016821F00E0101600798F8
:102200000068016821F00101016007980068082159
:10221000C4F20201884203D1FFE70120059047E0A4
:10222000079800681C21C4F20201884203D1FFE72D
:102230001020049039E0079800683021C4F20201B0
:10224000884204D1FFE74FF4807003902AE007989A
:1022500000684421C4F20201884204D1FFE74FF430
:10226000805002901BE0079800685821C4F20201D8
:10227000884204D1FFE74FF4803001900CE00798CA
:1022800000686C21C4F202014FF08072884208BFDE
:102290004FF480120192FFE701980290FFE7029845
:1022A0000390FFE703980490FFE704980590FFE789
:1022B00005980421C4F2020108600798012180F802
:1022C0002110FFE70798002180F82010FFE707980A
:1022D000406B002804D0FFE70798416B8847FFE771
:1022E000FFE79DF81B0008B080BD000081B00090A2
:1022F000009890F8210001B07047000080B583B0CD
:102300000190002000900198002804D1FFE70120EF
:102310008DF80B0049E0019801684FF6F872CBF692
:10232000FD7211444CF6CD42CCF6CC42A1FB021218
:102330006FF0030303EA9202026401980022C4F2E0
:102340000202C2630198022280F8212001980068ED
:1023500000680090009843F6F07290430090019856
:1023600042688368D0F80CC0D0F810E01A4342EA03
:102370000C0242EA0E0243691A4383691A43C06998
:102380001043009A104300900098019A1268106060
:102390000198002282630198012380F8213001987E
:1023A00080F820208DF80B20FFE79DF80B0003B08C
:1023B00080BD000080B586B0049003910292019325
:1023C00000208DF80300FFE7049890F82000012812
:1023D00004D1FFE702208DF817004DE00498012199
:1023E00080F82010FFE7FFE7049890F8210001280B
:1023F00033D1FFE70498022180F8211004980021CE
:10240000816304980068016821F00101016004986B
:102410000399029A019BFEF77FFA0498C06A00288C
:1024200007D0FFE704980068016841F00E010160E1
:102430000CE004980068016821F004010160049830
:102440000068016841F00A010160FFE70498006834
:10245000016841F00101016009E0FFE704980021F3
:1024600080F82010FFE702208DF80300FFE79DF8B9
:1024700003008DF81700FFE79DF8170006B080BD38
:1024800080B584B0039000F0CFF9029003980190DA
:1024900001980130002809D0FFE740F22800C2F27D
:1024A00000000078019908440190FFE7FFE700F081
:1024B000BBF90299401A0199884201D2FFE7F6E779
:1024C00004B080BD90B00F900E9100200D90099047
:1024D000FFE70E9800680D99C840002800F087813A
:1024E000FFE70D98012101FA00F00C900E980068AA
:1024F0000C9908400B900B980C99884240F073811E
:10250000FFE70E9840680028059051D0FFE7059836
:1025100001283AD0FFE7059802283FD0FFE7059849
:10252000032860D0FFE70598112832D0FFE705980F
:10253000122838D0FFE70020C1F21100059981422E
:1025400036D0FFE70020C1F21200059981422FD05A
:10255000FFE70020C1F221000599814228D0FFE762
:102560000020C1F222000599814221D0FFE700201E
:10257000C1F23100059981421AD0FFE70020C1F273
:1025800032000599814213D030E00E98C06809905E
:102590002DE00E98C0680430099028E00E98C068BD
:1025A0000830099023E00E98C0680C3009901EE0B6
:1025B0000E988068002803D1FFE70420099011E0FD
:1025C0000E988068012806D1FFE7082009900C9832
:1025D0000F99086105E0082009900C980F9948614F
:1025E000FFE7FFE703E00020099000E0FFE70B981A
:1025F000FF2803D8FFE70F98049003E00F980430FA
:102600000490FFE7049808900B98FF2804D8FFE790
:102610000D988000039006E00D986FF01F0101EB0C
:1026200080000390FFE703980790089800680799D7
:102630000F228A409043099A02FA01F1084308994F
:1026400008600E98C079C006002840F1CB80FFE7F3
:10265000FFE741F21800C4F20200016841F00101F5
:102660000160006800F0010006900698FFE70D98F1
:1026700020F003000821C4F2010140580A900D988F
:1026800000F0030080000F2101FA00F00A9921EA0E
:1026900000000A900F9840F60001C4F20101884240
:1026A00003D1FFE70020029026E00F9840F600419A
:1026B000C4F20101884203D1FFE70120019018E034
:1026C0000F9841F20001C4F20101884203D1FFE7F3
:1026D000022000900AE00F9841F20041C4F201018B
:1026E0000422884208BF03220092FFE7009801906D
:1026F000FFE701980290FFE702980D9901F00301AE
:10270000890088400A9908430A900A980D9921F097
:1027100003010822C4F2010288500E988079C00794
:10272000002809D0FFE70B9840F20041C4F20101F4
:102730000A681043086009E00B9840F20041C4F2B7
:1027400001010A6822EA00000860FFE70E9880791C
:102750008007002809D5FFE70B9840F20441C4F236
:1027600001010A681043086009E00B9840F2044137
:10277000C4F201010A6822EA00000860FFE70E982F
:102780008079C006002809D5FFE70B9840F2084180
:10279000C4F201010A681043086009E00B9840F296
:1027A0000841C4F201010A6822EA00000860FFE75C
:1027B0000E9880798006002809D5FFE70B9840F233
:1027C0000C41C4F201010A681043086009E00B984B
:1027D00040F20C41C4F201010A6822EA00000860DC
:1027E000FFE7FFE7FFE70D9801300D9071E610B0AD
:1027F0007047000082B013468C460190ADF802107D
:102800008DF801209DF80100002805D0FFE7BDF8F4
:1028100002000199086105E0BDF802000004019979
:102820000861FFE702B0704741F2D830C2F2000001
:102830000068704781B0009001B0704782B01346C5
:102840008C4601908DF80310ADF8002002B070475F
:1028500080B588B007900020059007980068406810
:1028600004900798C06A0390079890F83E008DF88E
:102870000B00079890F83D008DF80A009DF80B00BA
:10288000102806D0FFE79DF80B00402840F0038198
:10289000FFE707980068806905900798006840691D
:1028A00006900698C007002815D1FFE7039801217C
:1028B000B0F52A0F019108D0FFE7039800F1AC4072
:1028C000B0FA80F040090190FFE70198C0070028A6
:1028D00001D0FFE7A4E10698C007002810D0FFE769
:1028E0009DF8110000F002000021B1EB500F07D05D
:1028F000FFE7079802F09CFA079803F041FAC9E055
:102900009DF8180000F008000021B1EBD00F0DD0A9
:10291000FFE79DF8110000F002000021B1EB500F1D
:1029200004D0FFE7079803F053F8B2E09DF81800D1
:1029300000F002000021B1EB500F0DD0FFE79DF831
:10294000110000F002000021B1EB500F04D0FFE7AE
:10295000079803F065F89BE09DF8140000F0040070
:102960000021B1EB900F50D0FFE707980068406856
:1029700000F40060B0F5006F46D0FFE79DF8180046
:102980000021B1EBD01F16D0FFE79DF8110000F039
:1029900004000021B1EB900F0DD0FFE79DF8180067
:1029A00000F004000021B1EB900F04D1FFE707987D
:1029B00002F06EFF27E09DF8180000F004000021EF
:1029C000B1EB900F1DD0FFE79DF8110000F0020061
:1029D0000021B1EB500F14D0FFE79DF80A00212829
:1029E00004D1FFE7079802F0E3FE09E09DF80B0031
:1029F000402804D1FFE7079803F040FAFFE7FFE71C
:102A000000E0FFE7FFE7FFE741E007980068406864
:102A100000F40060B0F5006F38D0FFE79DF81800B3
:102A200000F040000021B1EB901F16D0FFE79DF8A9
:102A3000110000F004000021B1EB900F0DD0FFE772
:102A40009DF8180000F004000021B1EB900F04D1B4
:102A5000FFE7079802F00CFE17E09DF8180000F061
:102A600004000021B1EB900F0DD0FFE79DF811009D
:102A700000F002000021B1EB500F04D0FFE70798EF
:102A800002F026FD00E0FFE7FFE7FFE7FFE7FFE7D3
:102A9000FFE7FFE7C4E00798006C002805D0FFE7D8
:102AA000079800684069069008E007980068806908
:102AB00005900798006840690690FFE79DF81800A8
:102AC00000F002000021B1EB500F18D0FFE79DF895
:102AD000110000F002000021B1EB500F0FD0FFE712
:102AE0000798006C002805D0FFE707980068806908
:102AF0000590FFE70798059903F0F8FB8FE09DF834
:102B0000180000F010000021B1EB101F0DD0FFE7FE
:102B10009DF8110000F002000021B1EB500F04D02D
:102B2000FFE7079803F03AFC78E09DF80A002128B7
:102B300005D0FFE79DF80A00292836D1FFE79DF868
:102B400018000021B1EBD01F16D0FFE79DF811004F
:102B500000F004000021B1EB900F0DD0FFE79DF8CD
:102B6000180000F004000021B1EB900F04D1FFE742
:102B7000079803F083FB17E09DF8180000F00400AD
:102B80000021B1EB900F0DD0FFE79DF8110000F090
:102B900002000021B1EB500F04D0FFE7079803F0CB
:102BA00055FB00E0FFE7FFE737E09DF8180000F075
:102BB00040000021B1EB901F16D0FFE79DF81100F7
:102BC00000F004000021B1EB900F0DD0FFE79DF85D
:102BD000180000F004000021B1EB900F04D1FFE7D2
:102BE000079803F0F9FA17E09DF8180000F00400C8
:102BF0000021B1EB900F0DD0FFE79DF8110000F020
:102C000002000021B1EB500F04D0FFE7079803F05A
:102C1000CBFA00E0FFE7FFE7FFE7FFE7FFE7FFE7AB
:102C200008B080BD81B0009001B0704780B58EB013
:102C30000C900C98002804D1FFE701208DF8370094
:102C40004DE10C9890F83D00002808D1FFE70C9862
:102C5000002180F83C100C9800F00AFBFFE70C986C
:102C6000242180F83D100C980068016821F00101D2
:102C700001600C980068016841F4004101600C9803
:102C80000068016821F40041016000F023FF0A9010
:102C90000C98406848F2A061C0F2010188420BD84C
:102CA000FFE70A9848F28041C0F21E0100228842E4
:102CB00038BF012209920AE00A9840F60011C0F2DA
:102CC0003D010022884238BF01220992FFE709989E
:102CD000012804D1FFE701208DF83700FFE00A98B2
:102CE0004DF68361C4F21B31A0FB0101890C0B91ED
:102CF0000C990968496821F03F010B9A11430C9A1D
:102D0000126851600C990968096A21F03F010C9A18
:102D1000526848F2A063C0F201039A42089104D8B5
:102D2000FFE70B98013007900EE00B984FF4967177
:102D3000484344F6D351C1F26201A0FB01010122D4
:102D400002EB91110791FFE70798089908430C9A45
:102D5000126810620C980068C0694CF6FF729043CC
:102D60000C9A526848F2A063C0F201039A4206909E
:102D70001FD8FFE70A9801380C9949684900B0FB51
:102D8000F1F001306FF31F30032803D8FFE7042070
:102D900005900BE00A9801380C9949684900B0FB8E
:102DA000F1F001306FF31F300590FFE705980490B4
:102DB0004FE00C98806800280DD1FFE70A98013891
:102DC0000C99496801EB4101B0FBF1F001306FF360
:102DD0001F3003900DE00A9801380C9949681922B8
:102DE0005143B0FBF1F00130042161F31F30039037
:102DF000FFE703980005002803D1FFE701200290B8
:102E000024E00C98806800280DD1FFE70A9801386B
:102E10000C99496801EB4101B0FBF1F001306FF30F
:102E20001F3001900DE00A9801380C994968192269
:102E30005143B0FBF1F00130042161F31F300190E8
:102E4000FFE7019840F400400290FFE702980490E9
:102E5000FFE70498069908430C9A1268D0610C9811
:102E60000068006820F0C0000C9A1368D2F81CC0FB
:102E7000126A42EA0C02104318600C9800688068DD
:102E800048F2FF3290430C9A1368D2F80CC01269D2
:102E900042EA0C02104398600C980068C06820F069
:102EA000FF000C9A1368D2F814C0926942EA0C022F
:102EB0001043D8600C980068026842F0010202607A
:102EC0000C98002202640C98202380F83D300C9866
:102ED00002630C9880F83E208DF83720FFE79DF8BC
:102EE00037000EB080BD000081B0009001B0704787
:102EF00081B0009001B0704781B0009001B0704780
:102F000081B0009001B0704781B0009001B070476F
:102F100070B590B0DDF854C0DDF850E01C461546A1
:102F20000E460E90ADF83610ADF83420ADF83230C4
:102F3000ADF830C0CDF818E0059404950396FFF77E
:102F400073FC0B9000200A900E9890F83D0020280A
:102F500040F08681FFE740F20C00C2F200000068FA
:102F600048F21F51C5F2EB11A0FB0101C90844F65C
:102F7000D352C1F26202A1FB0212920919235A43F1
:102F80000A92FFE70A9801380A900A98002819D196
:102F9000FFE70E98002101630E98202280F83D2063
:102FA0000E9880F83E100E98016C41F020010164EB
:102FB000FFE70E98002180F83C10FFE701208DF814
:102FC0003F0051E1FFE70E980068806900F00200C1
:102FD0000021B1EB500FD5D1FFE7FFE70E9890F835
:102FE0003C00012804D1FFE702208DF83F003BE1BF
:102FF0000E98012180F83C10FFE7FFE70E9800686B
:103000000068C007002807D1FFE70E980068016834
:1030100041F001010160FFE70E980068016821F4AA
:10302000006101600E98222180F83D100E98402129
:1030300080F83E100E980021016414980E994862A1
:10304000BDF830000E9948850E98408D0E99088580
:103050000E980021CFF6FF71C1620E98008D0028F6
:1030600000F0C380FFE70E98806B002823D0FFE7B5
:103070000E98806B45F22D01C0F6000181620E981A
:10308000806B44F6C571C0F6000101630E98806B39
:103090000021C1620E98806B41630E980168426AFC
:1030A000836B1031008D02901846029BFFF782F966
:1030B0008DF8270016E00E98202180F83D100E981C
:1030C000002180F83E100E98016C41F080010164EF
:1030D000FFE70E98002180F83C10FFE701208DF8F3
:1030E0003F00C1E09DF82700002866D1FFE70E9859
:1030F000BDF83610BDF83420BDF83230DDF82CC0F4
:10310000EE46CEF804C04FF0230CCEF800C002F01B
:1031100049FF00281ED0FFE70E98806BFFF756F896
:103120008DF827000E98806B002181620E98006850
:10313000026822F4806202600E9801850E98418533
:103140000E980068016821F00101016001208DF8EE
:103150003F0089E00E98008D012807D1FFE70E9807
:103160000068016821F48061016006E00E98006843
:10317000416841F480514160FFE7FFE7002008907B
:103180000E980068406908900E9800688069089061
:103190000898FFE7FFE70E98002180F83C10FFE752
:1031A0000E980068416841F4807141600E98006893
:1031B000416841F40061416016E00E98202180F8DA
:1031C0003D100E98002180F83E100E98016C41F0E1
:1031D00010010164FFE70E98002180F83C10FFE722
:1031E00001208DF83F003FE036E00E98BDF8361024
:1031F000BDF83420BDF83230DDF82CC0EE46CEF8F4
:1032000004C04FF0230CCEF800C002F0CBFE002823
:1032100004D0FFE701208DF83F0025E0FFE7002004
:1032200007900E980068406907900E9800688069C2
:1032300007900798FFE70E980068016841F4007155
:1032400001600E98202180F83D10FFE70E980021C4
:1032500080F83C10FFE7FFE700208DF83F0003E017
:1032600002208DF83F00FFE79DF83F0010B070BDD1
:1032700080B58AB0099000200890079006900590CC
:103280000998006845F20041C4F20001884259D112
:10329000FFE7FFE741F21800C4F20200016841F0C5
:1032A00008010160006800F0080004900498FFE73E
:1032B000C0200590122006900320089040F60040A0
:1032C000C4F2010005A9FFF7FDF8FFE741F21C0079
:1032D000C4F20200016841F400110160006800F4CA
:1032E000001003900398FFE741F2B020C2F2000003
:1032F0008021C4F2020101600021416081608022CE
:10330000C260016141618161C161FEF7F7FF002880
:1033100003D0FFE7FDF734FBFFE7FFE7099841F231
:10332000B021C2F20001816309984862FFE71F20C3
:10333000002102900191019A00F0AAF8029800F091
:103340009BF8FFE70AB080BD81B0009001B07047E4
:1033500081B0009001B0704740F22800C2F2000036
:10336000007841F2D831C2F200010A6810440860C6
:103370007047000080B582B042F20000C4F2020043
:10338000016841F010010160032000F0A1F80F2056
:1033900000F006F8019000F03DF8002002B080BD7A
:1033A00080B582B0009040F20C00C2F200000068CC
:1033B00040F22801C2F2000109784FF47A72B2FBA0
:1033C000F1F1B0FBF1F000F063FF002804D0FFE75B
:1033D00001208DF8070018E000980F280DD8FFE7AE
:1033E00000994FF0FF30002200F052F8009840F2B0
:1033F0002C01C2F20001086003E001208DF80700F3
:1034000003E000208DF80700FFE79DF8070002B0F9
:1034100080BD000083B0FFE741F21800C4F2020053
:10342000016841F001010160006800F001000290B4
:103430000298FFE7FFE741F21C00C4F202000168B6
:1034400041F080510160006800F0805001900198C7
:10345000FFE7FFE70420C4F2010001680091009932
:1034600021F0E0610091009941F000710091009914
:103470000160FFE703B0704780B582B001468DF868
:1034800007009DF90700009104F03AFC02B080BDEE
:1034900080B588B003468DF81F0006910592002084
:1034A0000490039304F046FC04909DF91F000499D6
:1034B000069A059B0290084611461A4603F09AFDAB
:1034C000029901900846019904F03CFC08B080BDC7
:1034D00080B582B00190019804F056FC02B080BD26
:1034E00080B58CB00B9040F60E70C1F210000A90BF
:1034F00040F60A30C0F60C50099040F20670C0F653
:103500000810089040F20230C0F20450079040F2D8
:103510000120ADF81A00002005900490039002905D
:1035200001900B980128009065D0FFE700980228D1
:1035300000F0A480FFE70098102840F0AF80FFE77C
:1035400041F20400C4F202000068029041F200005F
:10355000C4F202000068C00100284BD5FFE70298C2
:10356000C0F3834007A9085C03909DF80A00C007D8
:1035700000281FD0FFE741F20400C4F202000068F7
:1035800000F400300DF11A0141EA50400078059036
:103590009DF80A00C00700280BD0FFE7059841F20C
:1035A0000021C0F27A01B1FBF0F003994843049086
:1035B000FFE707E0039840F60011C0F23D014843E1
:1035C0000490FFE741F20400C4F2020000684002E8
:1035D000002803D5FFE7049801900AE00498400012
:1035E0004AF6AB21CAF6AA21A0FB010149080191C4
:1035F000FFE7FFE753E041F22000C4F20200006859
:103600000290029800F44070B0F5807F0AD1FFE785
:103610009DF808008007002804D5FFE74FF400401C
:1036200001902AE0029800F44070B0F5007F0DD1BF
:10363000FFE741F22400C4F202000068800700287E
:1036400004D5FFE749F64040019015E0029800F4E8
:103650004070B0F5407F0DD1FFE741F20000C4F2A9
:10366000020000688003002804D5FFE74FF22440E1
:10367000019000E0FFE7FFE7FFE710E000F03CFA11
:1036800041F20401C4F20201096801F4404102223E
:1036900002EB5131B0FBF1F0019000E0FFE701983F
:1036A0000CB080BD80B586B00490002003900290DD
:1036B00004980078C007002800F0AE80FFE70020E3
:1036C0008DF8070041F21C00C4F202000068C0003F
:1036D000002813D4FFE7FFE741F21C00C4F2020008
:1036E000016841F080510160006800F08050009056
:1036F0000098FFE701208DF80700FFE747F2000080
:10370000C4F200000068C005002822D4FFE747F299
:103710000000C4F20000016841F480710160FFF70D
:1037200083F80390FFE747F20000C4F2000000684E
:10373000C00500280CD4FFE7FFF776F80399401A7C
:10374000652804D3FFE703208DF817008CE0EAE733
:10375000FFE741F22000C4F20200006800F440706C
:103760000290029800283DD0FFE70298049949682A
:1037700001F44071884235D0FFE741F22000C4F2E5
:103780000200016821F44071029140F24041C4F20C
:10379000422101220A6000220A60029901609DF81C
:1037A0000800C00700281CD0FFE7FFF73DF8039092
:1037B000FFE741F22000C4F2020000688007002801
:1037C0000ED4FFE7FFF730F80399401A41F2893130
:1037D000884204D3FFE703208DF8170044E0E8E7B0
:1037E000FFE7FFE741F22000C4F20200016821F484
:1037F0004071049A5268114301609DF80700012846
:1038000009D1FFE741F21C00C4F20200016821F077
:1038100080510160FFE7FFE70498007880070028E7
:103820000CD5FFE741F20400C4F20200016821F464
:103830004041049A926811430160FFE704980078C0
:10384000C00600280CD5FFE741F20400C4F20200D4
:10385000016821F48001049AD26811430160FFE7F6
:1038600000208DF81700FFE79DF8170006B080BD17
:1038700080B584B0029001910298002804D1FFE73E
:1038800001208DF80F001BE1019842F20001C4F203
:103890000201096801F00701884216D9FFE742F2E8
:1038A0000000C4F20200016821F00701019A1143EF
:1038B0000160006800F007000199884204D0FFE72A
:1038C00001208DF80F00FBE0FFE7029800788007E9
:1038D00000282AD5FFE7029800784007002809D57C
:1038E000FFE741F20400C4F20200016841F4E06124
:1038F0000160FFE7029800780007002809D5FFE77C
:1039000041F20400C4F20200016841F46051016018
:10391000FFE741F20400C4F20200016821F0F00167
:10392000029A926811430160FFE702980078C0078D
:10393000002860D0FFE70298406801280ED1FFE719
:1039400041F20000C4F2020000688003002804D4A1
:10395000FFE701208DF80F00B2E021E002984068F7
:1039600002280ED1FFE741F20000C4F20200006815
:103970008001002804D4FFE701208DF80F009FE0AC
:103980000DE041F20000C4F2020000688007002848
:1039900004D4FFE701208DF80F0091E0FFE7FFE777
:1039A00041F20400C4F20200016821F00301029A0E
:1039B000526811430160FEF737FF0090FFE741F2C4
:1039C0000400C4F20200006800F00C00029949688B
:1039D000B0EB810F0ED0FFE7FEF726FF0099401AEB
:1039E00041F28931884204D3FFE703208DF80F00AC
:1039F00066E0E4E7FFE7019842F20001C4F2020149
:103A0000096801F00701884216D2FFE742F2000080
:103A1000C4F20200016821F00701019A114301601C
:103A2000006800F007000199884204D0FFE70120F8
:103A30008DF80F0044E0FFE7029800784007002867
:103A40000CD5FFE741F20400C4F20200016821F442
:103A5000E061029AD26811430160FFE702980078A2
:103A6000000700280DD5FFE741F20400C4F2020070
:103A7000016821F46051029A126941EAC2010160B1
:103A8000FFE700F04BF841F20401C4F202010968BB
:103A9000C9B209094AF6D032C0F60002515CC840EA
:103AA00040F20C01C2F20001086040F22C00C2F2A8
:103AB00000000068FFF774FC00218DF80F10FFE78D
:103AC0009DF80F0004B080BD40F20C00C2F200006F
:103AD0000068704780B5FFF7F7FF41F20401C4F2B8
:103AE00002010968C1F302214AF6E032C0F6000281
:103AF000515CC84080BD000080B5FFF7E5FF41F292
:103B00000401C4F202010968C1F3C2214AF6E0329D
:103B1000C0F60002515CC84080BD00008BB040F68A
:103B20000E70C1F210000A9040F60A30C0F60C5038
:103B3000099040F20670C0F60810089040F202307A
:103B4000C0F20450079040F20120ADF81A000020A6
:103B50000590049003900290019041F20400C4F299
:103B6000020000680590059800F00C00014600284E
:103B700000913DD0FFE70098042804D0FFE70098AB
:103B8000082806D035E041F20020C0F27A0001900A
:103B900035E00598C0F3834007A9085C02909DF8C2
:103BA0001600C007002818D0FFE741F20400C4F255
:103BB0000200006800F400300DF11A0141EA5040A3
:103BC00000780490029841F20021C0F27A01484343
:103BD0000499B0FBF1F0039007E0029840F6001161
:103BE000C0F23D0148430390FFE70398019006E0CF
:103BF000FFE741F20020C0F27A000190FFE7019850
:103C00000BB0704780B586B004900498002804D1AA
:103C1000FFE701208DF8170035E304980078C0070E
:103C2000002800F0B180FFE741F20400C4F2020076
:103C3000006800F00C00042813D0FFE741F20400F4
:103C4000C4F20200006800F00C0008281CD1FFE755
:103C500041F20400C4F202000068C003002813D53A
:103C6000FFE741F20000C4F2020000688003002870
:103C700009D5FFE704984068002804D1FFE7012038
:103C80008DF81700FFE27EE0FFE704984068B0F58A
:103C9000803F09D1FFE741F20000C4F20200016851
:103CA00041F48031016033E00498406800280DD170
:103CB000FFE741F20000C4F20200016821F4803104
:103CC0000160016821F48021016020E004984068CF
:103CD000B0F5A02F0DD1FFE741F20000C4F20200C1
:103CE000016841F480210160016841F48031016084
:103CF0000CE041F20000C4F20200016821F48031BE
:103D00000160016821F480210160FFE7FFE7FFE720
:103D1000FFE70498406800281AD0FFE7FEF784FD0B
:103D20000390FFE741F20000C4F202000068800344
:103D300000280CD4FFE7FEF777FD0399401A6528A9
:103D400004D3FFE703208DF817009CE2EAE719E0AF
:103D5000FEF76AFD0390FFE741F20000C4F20200A3
:103D60000068800300280CD5FFE7FEF75DFD03998E
:103D7000401A652804D3FFE703208DF8170082E27C
:103D8000EAE7FFE7FFE7FFE70498007880070028ED
:103D900040F18E80FFE741F20400C4F202000068A7
:103DA00010F00C0F13D0FFE741F20400C4F2020040
:103DB000006800F00C00082829D1FFE741F2040058
:103DC000C4F202000068C003002820D4FFE741F2DB
:103DD0000000C4F2020000688007002809D5FFE750
:103DE00004980069012804D0FFE701208DF817002E
:103DF00049E241F20000C4F20200016821F0F8013A
:103E0000049A526941EAC2010160FFE74FE0049859
:103E1000006900282BD0FFE70020C4F242200121D6
:103E20000160FEF701FD0390FFE741F20000C4F2DC
:103E300002000068800700280CD4FFE7FEF7F4FCBE
:103E40000399401A032804D3FFE703208DF81700D5
:103E500019E2EAE741F20000C4F20200016821F031
:103E6000F801049A526941EAC20101601EE0002093
:103E7000C4F2422000210160FEF7D6FC0390FFE768
:103E800041F20000C4F202000068800700280CD54F
:103E9000FFE7FEF7C9FC0399401A032804D3FFE7A4
:103EA00003208DF81700EEE1EAE7FFE7FFE7FFE701
:103EB000049800780007002849D5FFE70498806936
:103EC000002823D0FFE740F28040C4F242200121C5
:103ED0000160FEF7A9FC0390FFE741F22400C4F261
:103EE00002000068800700280CD4FFE7FEF79CFC66
:103EF0000399401A032804D3FFE703208DF8170025
:103F0000C1E1EAE7012003F047F91FE040F28040F9
:103F1000C4F2422000210160FEF786FC0390FFE717
:103F200041F22400C4F202000068800700280CD58A
:103F3000FFE7FEF779FC0399401A032804D3FFE753
:103F400003208DF817009EE1EAE7FFE7FFE70498FA
:103F500000784007002840F1DA80FFE700208DF864
:103F6000070041F21C00C4F202000068C0000028F3
:103F700013D4FFE7FFE741F21C00C4F2020001681E
:103F800041F080510160006800F08050009000987E
:103F9000FFE701208DF80700FFE747F20000C4F2B9
:103FA00000000068C005002822D4FFE747F20000A7
:103FB000C4F20000016841F480710160FEF734FC36
:103FC0000390FFE747F20000C4F200000068C0055C
:103FD00000280CD4FFE7FEF727FC0399401A652858
:103FE00004D3FFE703208DF817004CE1EAE7FFE771
:103FF000FFE70498C068012809D1FFE741F22000DB
:10400000C4F20200016841F00101016032E004984D
:10401000C06800280DD1FFE741F22000C4F2020081
:10402000016821F001010160016821F004010160D3
:104030001FE00498C06805280DD1FFE741F2200079
:10404000C4F20200016841F004010160016841F01E
:10405000010101600CE041F22000C4F2020001689D
:1040600021F001010160016821F004010160FFE716
:10407000FFE7FFE7FFE70498C06800281CD0FFE7D0
:10408000FEF7D2FB0390FFE741F22000C4F20200EA
:104090000068800700280ED4FFE7FEF7C5FB0399F0
:1040A000401A41F28931884204D3FFE703208DF89A
:1040B0001700E8E0E8E71BE0FEF7B6FB0390FFE738
:1040C00041F22000C4F202000068800700280ED5EB
:1040D000FFE7FEF7A9FB0399401A41F289318842B4
:1040E00004D3FFE703208DF81700CCE0E8E7FFE7F3
:1040F0009DF80700012809D1FFE741F21C00C4F236
:104100000200016821F080510160FFE7FFE7049899
:10411000C069002800F0B380FFE741F20400C4F258
:104120000200006800F00C00082800F08280FFE721
:104130000498C06902285CD1FFE76020C4F24220E5
:1041400000210160FEF770FB0390FFE741F20000E1
:10415000C4F202000068800100280CD5FFE7FEF7DA
:1041600063FB0399401A032804D3FFE703208DF86B
:10417000170088E0EAE70498006AB0F5803F0CD1A8
:10418000FFE741F20400C4F20200016821F40031AB
:10419000049A926811430160FFE741F20400C4F2FF
:1041A0000200016821F47411049A136A526A1A43D6
:1041B000114301606020C4F2422001210160FEF73A
:1041C00033FB0390FFE741F20000C4F202000068F5
:1041D000800100280CD4FFE7FEF726FB0399401A64
:1041E000032804D3FFE703208DF817004BE0EAE72C
:1041F0001EE06020C4F2422000210160FEF714FBA3
:104200000390FFE741F20000C4F202000068800161
:1042100000280CD5FFE7FEF707FB0399401A032897
:1042200004D3FFE703208DF817002CE0EAE7FFE74F
:1042300024E00498C069012804D1FFE701208DF82B
:10424000170020E041F20400C4F20200006802906E
:10425000029800F480300499096A884208D1FFE787
:10426000029800F470100499496A884204D0FFE76C
:1042700001208DF8170006E0FFE7FFE7FFE70020C9
:104280008DF81700FFE79DF8170006B080BD00000D
:1042900080B582B00190019803F084F902B080BD2E
:1042A00081B0009001B0704781B0009001B07047BC
:1042B00084B00290019100200090FFE7029890F8EE
:1042C0003C00012804D1FFE702208DF80F0044E0F4
:1042D0000298012180F83C10FFE7FFE7009820F0EA
:1042E000FF000199C96808430090009820F44070CD
:1042F0000199896808430090009820F48060019932
:10430000496808430090009820F40060019909680A
:1043100008430090009820F48050019909690843EF
:104320000090009820F400500199496908430090DA
:10433000009820F480400199C969084300900098D2
:10434000029909684864FFE70298002180F83C1050
:10435000FFE700208DF80F00FFE79DF80F0004B085
:104360007047000085B003900291FFE7039890F832
:104370003C00012804D1FFE702208DF813005BE028
:104380000398012180F83C10FFE7FFE70398022122
:1043900080F83D1003980068406801900398006819
:1043A00080680090019820F07000019002980068E9
:1043B000019908430190019803990968486003989E
:1043C000006842F60041C4F20101884218D0FFE7BC
:1043D00003980068B0F1804F12D0FFE7039800689F
:1043E00040F20041C4F20001884209D0FFE703987F
:1043F000006840F60001C4F2000188420ED1FFE7D8
:10440000009820F0800000900298406800990843CE
:1044100000900098039909688860FFE703980121DC
:1044200080F83D10FFE70398002180F83C10FFE77B
:1044300000208DF81300FFE79DF8130005B07047CA
:1044400080B584B002900298002804D1FFE70120D3
:104450008DF80F0043E0029890F83D00002808D145
:10446000FFE70298002180F83C10029800F03CF829
:10447000FFE70298022180F83D10029850F8041BD3
:1044800001900846019903F081F90298012180F812
:104490004610FFE70298012180F83E10029880F84C
:1044A0003F10029880F84010029880F84110FFE712
:1044B000FFE70298012180F84210029880F843102B
:1044C000029880F84410029880F84510FFE702989F
:1044D000012180F83D1000208DF80F00FFE79DF8C6
:1044E0000F0004B080BD000080B588B00790079829
:1044F000006842F60041C4F2010188421AD1FFE788
:10450000FFE741F21800C4F20200016841F40061C3
:104510000160006800F4006006900698FFE719202B
:10452000002104900391039AFEF7B2FF0498FEF76E
:10453000A3FF23E00798006840F20041C4F20001A5
:1045400088421AD1FFE7FFE741F21C00C4F20200E3
:10455000016841F002010160006800F0020005906E
:104560000598FFE71D20002102900191019AFEF7B6
:104570008FFF0298FEF780FFFFE7FFE708B080BDDE
:1045800083B00190019890F83D00012804D0FFE726
:1045900001208DF80B0047E00198022180F83D10C2
:1045A00001980068C16841F00101C160019800688C
:1045B00042F60041C4F20101884218D0FFE7019899
:1045C0000068B0F1804F12D0FFE70198006840F218
:1045D0000041C4F20001884209D0FFE70198006859
:1045E00040F60001C4F20001884212D1FFE70198B1
:1045F0000068806800F0070000900098062807D047
:10460000FFE701980068016841F001010160FFE7E0
:1046100006E001980068016841F001010160FFE7D0
:1046200000208DF80B00FFE79DF80B0003B07047EA
:1046300080B58AB008900791FFE7089890F83C0091
:10464000012804D1FFE702208DF82700B7E0089881
:10465000012180F83C10FFE7FFE70898022180F86D
:104660003D100898006880680690069820F0770052
:104670000690069820F47F400690069808990968ED
:104680008860079800680028059000F08280FFE7A6
:10469000059810287DD0FFE70598202879D0FFE7FE
:1046A0000598302875D0FFE70598402861D0FFE7CE
:1046B000059850283DD0FFE70598602849D0FFE7CE
:1046C000059870280BD0FFE70598B0F5805F05D0FE
:1046D000FFE70598B0F5005F19D061E061E0089848
:1046E000006807994A688B68C96804911946049B59
:1046F00003F0E0F80898006880680690069840F09B
:1047000077000690069808990968886049E008983B
:10471000006807994A688B68C96803911946039B2A
:1047200003F0C8F808980068816841F4804181600E
:1047300037E00898006807994A68C96802911146ED
:10474000029A03F089FA08980068502103F0CCF827
:1047500027E00898006807994A68C96801911146DE
:10476000019A03F0A1FA08980068602103F0BCF8F0
:1047700017E00898006807994A68C96800911146CF
:10478000009A03F069FA08980068402103F0ACF839
:1047900007E0089800680799096803F0A5F800E0A9
:1047A000FFE70898012180F83D10FFE708980021F5
:1047B00080F83C10FFE700208DF82700FFE79DF808
:1047C00027000AB080BD000081B0009001B07047A2
:1047D00080B582B0019001980068006900F0020085
:1047E0000021B1EB500F29D0FFE701980068C068A5
:1047F00000F002000021B1EB500F1ED0FFE701983E
:1048000000686FF0020101610198012101770198B0
:10481000006880698007002804D0FFE70198FFF74F
:10482000D3FF06E0019800F045F9019800F038FA4E
:10483000FFE7019800210177FFE7FFE70198006893
:10484000006900F004000021B1EB900F29D0FFE7D0
:1048500001980068C06800F004000021B1EB900FDF
:104860001ED0FFE7019800686FF004010161019814
:104870000221017701980068806910F4407F04D01C
:10488000FFE70198FFF7A0FF06E0019800F012F99A
:10489000019800F005FAFFE7019800210177FFE792
:1048A000FFE701980068006900F008000021B1EB03
:1048B000D00F29D0FFE701980068C06800F0080019
:1048C0000021B1EBD00F1ED0FFE7019800686FF018
:1048D0000801016101980421017701980068C0690D
:1048E0008007002804D0FFE70198FFF76DFF06E07E
:1048F000019800F0DFF8019800F0D2F9FFE7019885
:1049000000210177FFE7FFE701980068006900F0E8
:1049100010000021B1EB101F29D0FFE701980068BB
:10492000C06800F010000021B1EB101F1ED0FFE79F
:10493000019800686FF0100101610198082101776A
:1049400001980068C06910F4407F04D0FFE7019827
:10495000FFF73AFF06E0019800F0ACF8019800F08C
:104960009FF9FFE7019800210177FFE7FFE7019832
:1049700000680069C007002811D0FFE701980068AF
:10498000C068C007002809D0FFE7019800686FF0F1
:1049900001010161019800F039FAFFE7FFE7019892
:1049A00000680069C0B20021B1EBD01F13D0FFE74F
:1049B00001980068C068C0B20021B1EBD01F09D0D7
:1049C000FFE7019800686FF0800101610198FFF72F
:1049D00067FCFFE7FFE701980068006900F040000E
:1049E0000021B1EB901F14D0FFE701980068C06868
:1049F00000F040000021B1EB901F09D0FFE70198C3
:104A000000686FF040010161019800F003FAFFE7D0
:104A1000FFE701980068006900F020000021B1EB79
:104A2000501F14D0FFE701980068C06800F0200014
:104A30000021B1EB501F09D0FFE7019800686FF02B
:104A4000200101610198FFF72FFCFFE7FFE702B0AB
:104A500080BD000080B586B00590002004900390D2
:104A6000029001900598006842F60041C4F20101ED
:104A700088421DD1FFE7FFE741F21800C4F20200AF
:104A8000016841F004010160006800F0040000903A
:104A90000098FFE74FF4E06001900220029004903C
:104AA00040F60000C4F2010001A9FDF70BFDFFE78D
:104AB00006B080BD81B0009001B0704780B586B06F
:104AC000049003910292FFE7049890F83C000128BB
:104AD00004D1FFE702208DF8170085E0049801213A
:104AE00080F83C10FFE7FFE702980C28019000F2E5
:104AF00070800199DFE801F0076D6D6D206D6D6DBF
:104B00003A6D6D6D530004980068039902F018FF28
:104B100004980068816941F0080181610498006887
:104B2000816921F004018161039800690499096891
:104B30008A69104388614DE004980068039902F087
:104B400067FF04980068816941F4006181610498FD
:104B50000068816921F4806181610398006904998A
:104B600009688A6942EA0020886133E00498006895
:104B7000039902F0B9FF04980068C16941F0080187
:104B8000C16104980068C16921F00401C161039802
:104B9000006904990968CA691043C8611AE0049859
:104BA0000068039903F00CF804980068C16941F4A7
:104BB0000061C16104980068C16921F48061C1612C
:104BC0000398006904990968CA6942EA0020C8612B
:104BD00000E0FFE7FFE70498002180F83C10FFE7C2
:104BE00000208DF81700FFE79DF8170006B080BD84
:104BF00080B584B002900298002804D1FFE701201C
:104C00008DF80F0043E0029890F83D00002808D18D
:104C1000FFE70298002180F83C10029800F03CF871
:104C2000FFE70298022180F83D10029850F8041B1B
:104C300001900846019902F0A9FD0298012180F82F
:104C40004610FFE70298012180F83E10029880F894
:104C50003F10029880F84010029880F84110FFE75A
:104C6000FFE70298012180F84210029880F8431073
:104C7000029880F84410029880F84510FFE70298E7
:104C8000012180F83D1000208DF80F00FFE79DF80E
:104C90000F0004B080BD000081B0009001B07047EB
:104CA00081B0009001B0704780B58AB0089007913C
:104CB0000798002805D1FFE7089890F83E00059076
:104CC0001CE00798042805D1FFE7089890F83F00FA
:104CD000049010E00798082805D1FFE7089890F89D
:104CE0004000039004E0089890F841000390FFE72B
:104CF00003980490FFE704980590FFE705980128C2
:104D000004D0FFE701208DF827007BE007980028FA
:104D100005D1FFE70898022180F83E101EE00798B1
:104D2000042806D1FFE70898022180F83F1002917D
:104D300012E00798082806D1FFE70898022180F8BA
:104D40004010019105E00898022180F8411001917E
:104D5000FFE701980290FFE70298FFE708980068D4
:104D60000799012202F08AFD0898006842F6004186
:104D7000C4F20101884207D1FFE708980068416C3E
:104D800041F400414164FFE70898006842F60041A1
:104D9000C4F20101884218D0FFE708980068B0F11A
:104DA000804F12D0FFE70898006840F20041C4F23B
:104DB0000001884209D0FFE70898006840F600012A
:104DC000C4F20001884212D1FFE7089800688068A9
:104DD00000F0070006900698062807D0FFE708981D
:104DE0000068016841F001010160FFE706E00898F2
:104DF0000068016841F001010160FFE700208DF8C3
:104E00002700FFE79DF827000AB080BD81B0009021
:104E100001B0704781B0009001B07047FFE7FEE736
:104E200080B541F2F420C2F20000FDF711FD80BD13
:104E300081B000900098C06AB0F52A0F04D1FFE756
:104E400000980121C1620BE00098C06AB0F12A4FBE
:104E500004D1FFE700980821C16200E0FFE7FFE707
:104E600001B0704780B584B0039000200290039891
:104E7000406A0190019890F83D008DF8030040F2DF
:104E80000C00C2F20000006848F21F51C5F2EB119D
:104E9000A0FB0101C90844F6D352C1F26202A1FB92
:104EA0000212920923235A430292FFE70298002834
:104EB00006D1FFE70198016C41F0200101640CE08C
:104EC000029801380290FFE701980068006800F43A
:104ED0000070B0F5007FE9D0FFE70198406B002833
:104EE00005D0FFE70198406B00218162FFE7019840
:104EF000806B002805D0FFE70198806B002181625C
:104F0000FFE701980068016821F480610160019861
:104F1000002141850198406B002805D0FFE70198EA
:104F2000406B00214163FFE70198806B002805D0AA
:104F3000FFE70198806B00214163FFE7019800685B
:104F4000016821F001010160019890F83D0060289E
:104F50000ED1FFE70198202180F83D100198002133
:104F600080F83E10019801640198FDF763FC27E08A
:104F70009DF8030000F02800282814D1FFE70198CD
:104F80000068016841F00101016001980068016852
:104F900041F480610160019800210163019828219A
:104FA00080F83D1008E00198202180F83D1001981C
:104FB000002180F83E10FFE70198FDF733FEFFE780
:104FC00004B080BD80B582B001900198406A009025
:104FD0000098406B002805D0FFE70098406B002147
:104FE0008162FFE70098806B002805D0FFE70098FA
:104FF000806B00218162FFE700980068016821F45E
:10500000806101600098002141850098202280F88D
:105010003D20009880F83E100098016C41F010018E
:1050200001640098FDF7FEFD02B080BD80B584B03C
:1050300003900398406A0290029890F83D008DF822
:105040000700029890F83E008DF806000298C06AAA
:10505000009002980068416821F440714160029814
:10506000406B002805D0FFE70298406B0021816269
:10507000FFE70298806B002805D0FFE70298806B5D
:1050800000218162FFE79DF8070000F02100212840
:105090000CD0FFE79DF8070000F02200222837D14E
:1050A000FFE79DF80600202832D1FFE7029800684C
:1050B000416821F4006141600298002141859DF81A
:1050C000070029280BD1FFE70298212101630298EC
:1050D000282180F83D100298FEF73AF911E09DF87A
:1050E00007002A280BD1FFE70298222101630298CA
:1050F000282180F83D100298FEF726F900E0FFE72E
:10510000FFE702980068416841F4407141606BE03C
:10511000029890F83E00002864D0FFE70298408D86
:10512000012807D1FFE702980068016821F4806137
:105130000160FFE702980068416821F44071416016
:10514000009810F5803F0DD0FFE70098082809D09F
:10515000FFE70098B0F12A4F04D0FFE7009820281D
:1051600007D1FFE702980068016841F4007101600F
:10517000FFE702980068416821F48051416002987D
:105180000068416821F40061416002980021418576
:105190000298006C002804D0FFE70298FDF742FD5A
:1051A0001FE00298202180F83D10029890F83E0000
:1051B00040280AD1FFE70298002180F83E100298AB
:1051C00001630298FDF79CFE0AE00298002180F836
:1051D0003E100298122101630298FDF789FEFFE755
:1051E000FFE700E0FFE7FFE704B080BD80B584B0D3
:1051F0000390039890F83D008DF80B00039890F809
:105200003E008DF80A009DF80A00102805D0FFE73F
:105210009DF80A0040280CD1FFE79DF80B002228DA
:1052200007D1FFE703980068016821F4006101607D
:10523000FFE79DF80B0000F02800282808D1FFE7C1
:105240000398002101630398282180F83D101AE09B
:1052500003980068406800F40060B0F5006F0ED05D
:10526000FFE79DF80B00602809D0FFE70398202195
:1052700080F83D100398002180F83E10FFE7039866
:1052800000210163FFE703980068406800050028DB
:105290005FD5FFE703980068416821F40061416031
:1052A0000398406B90F8210001281ED0FFE7039877
:1052B000406B44F66561C0F6000141630398406BA2
:1052C000FCF784FF00280FD0FFE70398006801680F
:1052D00021F0010101600398202180F83D1003981E
:1052E000406B416B8847FFE732E00398806B44F6E0
:1052F0006561C0F6000141630398806BFCF766FFAF
:10530000002824D0FFE703980068406900F04000BF
:105310000121B1EB901F0BD1FFE7039800680069F2
:105320000399496A08700398416A01314162FFE7B5
:1053300003980068016821F00101016003982021B1
:1053400080F83D100398806B416B8847FFE7FFE7CB
:1053500045E0039890F83D00602826D1FFE70398C8
:10536000202180F83D100398002101640398006813
:10537000406900F040000121B1EB901F0BD1FFE725
:105380000398006800690399496A08700398416AA4
:1053900001314162FFE703980068016821F00101D3
:1053A00001600398FDF746FA18E003980068406929
:1053B00000F040000121B1EB901F0BD1FFE70398F3
:1053C000006800690399496A08700398416A0131CD
:1053D0004162FFE70398FDF725FCFFE7FFE703982D
:1053E000006C01909DF80400C007002812D1FFE76F
:1053F000019800F0020002280CD0FFE7019800F0AD
:105400000400042806D0FFE79DF8040000070028E8
:1054100007D5FFE703980068416821F4E061416027
:10542000FFE7039890F83D008DF80B000398006C9F
:105430004007002818D5FFE79DF80B00282813D156
:10544000FFE703980021CFF6FF71C16203980021A6
:1054500001630398202280F83D20039880F83E10D5
:105460000398FDF741FDFFE704B080BD82B00090D6
:1054700000980068406900F480600121B1EB902F32
:105480001ED1FFE7009800686FF4806141610098C9
:10549000002101630098202280F83D20009880F8C8
:1054A0003E100098016C41F004010164FFE7009890
:1054B000002180F83C10FFE701208DF8070003E091
:1054C00000208DF80700FFE79DF8070002B0704745
:1054D00080B582B001900198C06A00900198408D1B
:1054E000042815D1FFE701980068416821F4806124
:1054F00041600198006800690199496A0870019843
:10550000416A013141620198418D01394185ACE028
:105510000198408D032824D1FFE701980068416875
:1055200021F480614160009804280BD0FFE70098C7
:10553000022807D0FFE701980068016821F4806124
:105540000160FFE70198006800690199496A0870E5
:105550000198416A013141620198418D01394185CB
:1055600082E00198408D02286ED1FFE70098012863
:1055700004D0FFE70098102807D1FFE701980068E2
:10558000016821F4806101601CE00098042804D0C7
:10559000FFE70098022807D1FFE70198006801683B
:1055A00041F4806101600CE00098102807D0FFE70B
:1055B00001980068016841F40071016000E0FFE7B4
:1055C000FFE7FFE70198006800690199496A0870E0
:1055D0000198416A013141620198418D013941854B
:1055E0000198006800690199496A08700198416A48
:1055F000013141620198418D01394185019800686E
:10560000416821F4407141600198202180F83D10EB
:10561000019890F83E0040280AD1FFE70198002148
:1056200080F83E10019801630198FDF769FC0AE0DB
:105630000198002180F83E10019812210163019821
:10564000FDF756FCFFE70EE001980068006901993C
:10565000496A08700198416A013141620198418D9F
:1056600001394185FFE7FFE7FFE702B080BD000099
:1056700080B582B00190019890F83D00222840F05A
:105680009480FFE70198408D0090009804281BD378
:10569000FFE70198006800690199496A087001985C
:1056A000416A013141620198418D0139418501987A
:1056B000408D032807D1FFE701980068416821F475
:1056C00080614160FFE76FE00198C06A022869D0FD
:1056D000FFE70098012804D0FFE70098002861D177
:1056E000FFE7019801F072F800283AD1FFE701982E
:1056F0000068016821F480610160019800684168D8
:1057000021F4E06141600198006800690199496AEB
:1057100008700198416A013141620198418D013957
:1057200041850198202180F83D10019890F83E00B5
:1057300040280AD1FFE70198002180F83E10019827
:1057400001630198FDF7DCFB0AE00198002180F875
:105750003E100198122101630198FDF7C9FBFFE794
:105760001FE001980068416821F4E0614160019800
:10577000006800690199496A08700198416A01311D
:1057800041620198418D013941850198202180F8BD
:105790003D100198002180F83E100198FDF742FA73
:1057A000FFE700E0FFE7FFE7FFE702B080BD000092
:1057B00080B582B001900198C06A0090019890F87D
:1057C0003D00212861D1FFE70198408D00280ED0CF
:1057D000FFE701980168406A007808610198416A12
:1057E000013141620198418D013941854CE00098B9
:1057F00008281ED0FFE7009820281AD0FFE700985D
:1058000010F5803F15D0FFE701980068416821F44A
:10581000E06141600198112101630198002180F845
:105820003E100198202180F83D100198FDF764FB9F
:1058300029E001980068416821F4E0614160019825
:105840000068016841F40071016001980021016362
:105850000198202180F83D10019890F83E004028E2
:1058600008D1FFE70198002180F83E100198FDF76C
:105870004BFB07E00198002180F83E100198FDF7EE
:105880003BFBFFE7FFE7FFE700E0FFE702B080BD7B
:1058900080B584B00390039890F83D008DF80B001C
:1058A000039890F83E008DF80A000398C06A0190B2
:1058B0000398008D002852D1FFE79DF80B002128A6
:1058C0004DD1FFE7019808281ED0FFE70198202856
:1058D0001AD0FFE7019810F5803F15D0FFE7039835
:1058E0000068416821F4E06141600398112101637F
:1058F0000398002180F83E100398202180F83D1085
:105900000398FDF7F9FA29E003980068416821F44B
:10591000E061416003980068016841F40071016032
:105920000398002101630398202180F83D1003981B
:1059300090F83E00402808D1FFE70398002180F846
:105940003E100398FDF7E0FA07E00398002180F885
:105950003E100398FDF7D0FAFFE7FFE736E09DF829
:105960000B0021280AD0FFE79DF80A0040282BD120
:10597000FFE79DF80B00222826D1FFE70398408D12
:10598000002807D1FFE703980068416821F480618F
:10599000416018E0039890F83E00402804D1FFE7EA
:1059A000039800F06BFA0DE003980168406A0078F4
:1059B00008610398416A013141620398418D0139C0
:1059C0004185FFE7FFE700E0FFE7FFE704B080BDA8
:1059D00081B000900098406CC0B2009909680861DD
:1059E0000098406B002806D0FFE70098406B806A63
:1059F00000280BD1FFE70098806B00280DD0FFE74F
:105A00000098806B806A002807D0FFE70098006844
:105A1000416841F400614160FFE701B07047000058
:105A20008FB00E900E9890F83E008DF837000E98CB
:105A3000C06A0C900E98006B0B900E9890F83D0089
:105A4000222840F08C81FFE70E98006D002813D1CA
:105A5000FFE79DF8370040280ED1FFE7FFE7002061
:105A60000A900E98006840690A900E980068806954
:105A70000A900A98FFE771E10E98006D00281ED188
:105A8000FFE70E980069B0F5404F18D1FFE7FFE738
:105A9000002009900E980068406909900E980068EF
:105AA000806909900998FFE70E980068016841F441
:105AB000807101600E98016D013101654DE10E9814
:105AC000408D002814D1FFE7FFE7002008900E98D2
:105AD0000068406908900E980068806908900898EE
